{
  "contractName": "Nonce",
  "abi": [
    {
      "constant": true,
      "inputs": [
        {
          "name": "_address",
          "type": "address"
        },
        {
          "name": "_tokenId",
          "type": "uint256"
        }
      ],
      "name": "balanceOf",
      "outputs": [
        {
          "name": "",
          "type": "uint256"
        }
      ],
      "payable": false,
      "stateMutability": "view",
      "type": "function",
      "signature": "0x00fdd58e"
    },
    {
      "constant": true,
      "inputs": [
        {
          "name": "_interfaceId",
          "type": "bytes4"
        }
      ],
      "name": "supportsInterface",
      "outputs": [
        {
          "name": "",
          "type": "bool"
        }
      ],
      "payable": false,
      "stateMutability": "view",
      "type": "function",
      "signature": "0x01ffc9a7"
    },
    {
      "constant": true,
      "inputs": [
        {
          "name": "_tokenId",
          "type": "uint256"
        }
      ],
      "name": "getApproved",
      "outputs": [
        {
          "name": "",
          "type": "address"
        }
      ],
      "payable": false,
      "stateMutability": "view",
      "type": "function",
      "signature": "0x081812fc"
    },
    {
      "constant": false,
      "inputs": [
        {
          "name": "_to",
          "type": "address"
        },
        {
          "name": "_tokenId",
          "type": "uint256"
        },
        {
          "name": "_amount",
          "type": "uint256"
        }
      ],
      "name": "transfer",
      "outputs": [],
      "payable": false,
      "stateMutability": "nonpayable",
      "type": "function",
      "signature": "0x095bcdb6"
    },
    {
      "constant": false,
      "inputs": [
        {
          "name": "_to",
          "type": "address"
        },
        {
          "name": "_tokenId",
          "type": "uint256"
        }
      ],
      "name": "approve",
      "outputs": [],
      "payable": false,
      "stateMutability": "nonpayable",
      "type": "function",
      "signature": "0x095ea7b3"
    },
    {
      "constant": false,
      "inputs": [
        {
          "name": "_from",
          "type": "address"
        },
        {
          "name": "_to",
          "type": "address"
        },
        {
          "name": "_tokenId",
          "type": "uint256"
        },
        {
          "name": "_amount",
          "type": "uint256"
        }
      ],
      "name": "safeTransferFrom",
      "outputs": [],
      "payable": false,
      "stateMutability": "nonpayable",
      "type": "function",
      "signature": "0x0febdd49"
    },
    {
      "constant": true,
      "inputs": [],
      "name": "implementsERC721",
      "outputs": [
        {
          "name": "",
          "type": "bool"
        }
      ],
      "payable": false,
      "stateMutability": "pure",
      "type": "function",
      "signature": "0x1051db34"
    },
    {
      "constant": false,
      "inputs": [
        {
          "name": "_from",
          "type": "address"
        },
        {
          "name": "_to",
          "type": "address"
        },
        {
          "name": "_tokenIds",
          "type": "uint256[]"
        },
        {
          "name": "_amounts",
          "type": "uint256[]"
        }
      ],
      "name": "batchTransferFrom",
      "outputs": [],
      "payable": false,
      "stateMutability": "nonpayable",
      "type": "function",
      "signature": "0x17fad7fc"
    },
    {
      "constant": true,
      "inputs": [],
      "name": "totalSupply",
      "outputs": [
        {
          "name": "",
          "type": "uint256"
        }
      ],
      "payable": false,
      "stateMutability": "view",
      "type": "function",
      "signature": "0x18160ddd"
    },
    {
      "constant": true,
      "inputs": [],
      "name": "InterfaceId_ERC165",
      "outputs": [
        {
          "name": "",
          "type": "bytes4"
        }
      ],
      "payable": false,
      "stateMutability": "view",
      "type": "function",
      "signature": "0x19fa8f50"
    },
    {
      "constant": true,
      "inputs": [
        {
          "name": "_owner",
          "type": "address"
        }
      ],
      "name": "tokensOwned",
      "outputs": [
        {
          "name": "indexes",
          "type": "uint256[]"
        },
        {
          "name": "balances",
          "type": "uint256[]"
        }
      ],
      "payable": false,
      "stateMutability": "view",
      "type": "function",
      "signature": "0x21cda790"
    },
    {
      "constant": false,
      "inputs": [
        {
          "name": "_from",
          "type": "address"
        },
        {
          "name": "_to",
          "type": "address"
        },
        {
          "name": "_tokenId",
          "type": "uint256"
        }
      ],
      "name": "transferFrom",
      "outputs": [],
      "payable": false,
      "stateMutability": "nonpayable",
      "type": "function",
      "signature": "0x23b872dd"
    },
    {
      "constant": false,
      "inputs": [
        {
          "name": "_from",
          "type": "address"
        },
        {
          "name": "_to",
          "type": "address"
        },
        {
          "name": "_tokenIds",
          "type": "uint256[]"
        },
        {
          "name": "_amounts",
          "type": "uint256[]"
        },
        {
          "name": "_data",
          "type": "bytes"
        }
      ],
      "name": "safeBatchTransferFrom",
      "outputs": [],
      "payable": false,
      "stateMutability": "nonpayable",
      "type": "function",
      "signature": "0x2eb2c2d6"
    },
    {
      "constant": true,
      "inputs": [
        {
          "name": "_owner",
          "type": "address"
        },
        {
          "name": "_index",
          "type": "uint256"
        }
      ],
      "name": "tokenOfOwnerByIndex",
      "outputs": [
        {
          "name": "_tokenId",
          "type": "uint256"
        }
      ],
      "payable": false,
      "stateMutability": "view",
      "type": "function",
      "signature": "0x2f745c59"
    },
    {
      "constant": false,
      "inputs": [
        {
          "name": "_from",
          "type": "address"
        },
        {
          "name": "_to",
          "type": "address"
        },
        {
          "name": "_tokenId",
          "type": "uint256"
        }
      ],
      "name": "safeTransferFrom",
      "outputs": [],
      "payable": false,
      "stateMutability": "nonpayable",
      "type": "function",
      "signature": "0x42842e0e"
    },
    {
      "constant": true,
      "inputs": [
        {
          "name": "_tokenId",
          "type": "uint256"
        }
      ],
      "name": "exists",
      "outputs": [
        {
          "name": "",
          "type": "bool"
        }
      ],
      "payable": false,
      "stateMutability": "view",
      "type": "function",
      "signature": "0x4f558e79"
    },
    {
      "constant": true,
      "inputs": [
        {
          "name": "_index",
          "type": "uint256"
        }
      ],
      "name": "tokenByIndex",
      "outputs": [
        {
          "name": "",
          "type": "uint256"
        }
      ],
      "payable": false,
      "stateMutability": "view",
      "type": "function",
      "signature": "0x4f6ccce7"
    },
    {
      "constant": true,
      "inputs": [
        {
          "name": "_tokenId",
          "type": "uint256"
        }
      ],
      "name": "ownerOf",
      "outputs": [
        {
          "name": "",
          "type": "address"
        }
      ],
      "payable": false,
      "stateMutability": "view",
      "type": "function",
      "signature": "0x6352211e"
    },
    {
      "constant": true,
      "inputs": [
        {
          "name": "",
          "type": "uint256"
        }
      ],
      "name": "tokenIdToOwner",
      "outputs": [
        {
          "name": "",
          "type": "address"
        }
      ],
      "payable": false,
      "stateMutability": "view",
      "type": "function",
      "signature": "0x6e9e48ef"
    },
    {
      "constant": true,
      "inputs": [
        {
          "name": "_owner",
          "type": "address"
        }
      ],
      "name": "balanceOf",
      "outputs": [
        {
          "name": "balance",
          "type": "uint256"
        }
      ],
      "payable": false,
      "stateMutability": "view",
      "type": "function",
      "signature": "0x70a08231"
    },
    {
      "constant": true,
      "inputs": [],
      "name": "implementsERC721X",
      "outputs": [
        {
          "name": "",
          "type": "bool"
        }
      ],
      "payable": false,
      "stateMutability": "pure",
      "type": "function",
      "signature": "0x7fb42a36"
    },
    {
      "constant": true,
      "inputs": [],
      "name": "owner",
      "outputs": [
        {
          "name": "",
          "type": "address"
        }
      ],
      "payable": false,
      "stateMutability": "view",
      "type": "function",
      "signature": "0x8da5cb5b"
    },
    {
      "constant": false,
      "inputs": [
        {
          "name": "_operator",
          "type": "address"
        },
        {
          "name": "_approved",
          "type": "bool"
        }
      ],
      "name": "setApprovalForAll",
      "outputs": [],
      "payable": false,
      "stateMutability": "nonpayable",
      "type": "function",
      "signature": "0xa22cb465"
    },
    {
      "constant": false,
      "inputs": [
        {
          "name": "_from",
          "type": "address"
        },
        {
          "name": "_to",
          "type": "address"
        },
        {
          "name": "_tokenId",
          "type": "uint256"
        },
        {
          "name": "_data",
          "type": "bytes"
        }
      ],
      "name": "safeTransferFrom",
      "outputs": [],
      "payable": false,
      "stateMutability": "nonpayable",
      "type": "function",
      "signature": "0xb88d4fde"
    },
    {
      "constant": true,
      "inputs": [
        {
          "name": "_tokenId",
          "type": "uint256"
        }
      ],
      "name": "tokenURI",
      "outputs": [
        {
          "name": "tokenUri",
          "type": "string"
        }
      ],
      "payable": false,
      "stateMutability": "view",
      "type": "function",
      "signature": "0xc87b56dd"
    },
    {
      "constant": true,
      "inputs": [
        {
          "name": "",
          "type": "uint256"
        }
      ],
      "name": "tokenIdToName",
      "outputs": [
        {
          "name": "",
          "type": "bytes32"
        }
      ],
      "payable": false,
      "stateMutability": "view",
      "type": "function",
      "signature": "0xda2bfdb1"
    },
    {
      "constant": true,
      "inputs": [
        {
          "name": "_owner",
          "type": "address"
        },
        {
          "name": "_operator",
          "type": "address"
        }
      ],
      "name": "isApprovedForAll",
      "outputs": [
        {
          "name": "isOperator",
          "type": "bool"
        }
      ],
      "payable": false,
      "stateMutability": "view",
      "type": "function",
      "signature": "0xe985e9c5"
    },
    {
      "constant": false,
      "inputs": [
        {
          "name": "_from",
          "type": "address"
        },
        {
          "name": "_to",
          "type": "address"
        },
        {
          "name": "_tokenId",
          "type": "uint256"
        },
        {
          "name": "_amount",
          "type": "uint256"
        },
        {
          "name": "_data",
          "type": "bytes"
        }
      ],
      "name": "safeTransferFrom",
      "outputs": [],
      "payable": false,
      "stateMutability": "nonpayable",
      "type": "function",
      "signature": "0xf242432a"
    },
    {
      "constant": true,
      "inputs": [
        {
          "name": "",
          "type": "uint256"
        }
      ],
      "name": "tokenIdToPrice",
      "outputs": [
        {
          "name": "",
          "type": "uint256"
        }
      ],
      "payable": false,
      "stateMutability": "view",
      "type": "function",
      "signature": "0xf4812eb9"
    },
    {
      "constant": true,
      "inputs": [
        {
          "name": "",
          "type": "uint256"
        }
      ],
      "name": "tokenEscrow",
      "outputs": [
        {
          "name": "tokenOwer",
          "type": "address"
        },
        {
          "name": "fundsInEscrow",
          "type": "uint256"
        },
        {
          "name": "finalized",
          "type": "bool"
        }
      ],
      "payable": false,
      "stateMutability": "view",
      "type": "function",
      "signature": "0xf926ebaf"
    },
    {
      "constant": false,
      "inputs": [
        {
          "name": "_from",
          "type": "address"
        },
        {
          "name": "_to",
          "type": "address"
        },
        {
          "name": "_tokenId",
          "type": "uint256"
        },
        {
          "name": "_amount",
          "type": "uint256"
        }
      ],
      "name": "transferFrom",
      "outputs": [],
      "payable": false,
      "stateMutability": "nonpayable",
      "type": "function",
      "signature": "0xfe99049a"
    },
    {
      "inputs": [],
      "payable": false,
      "stateMutability": "nonpayable",
      "type": "constructor",
      "signature": "constructor"
    },
    {
      "anonymous": false,
      "inputs": [
        {
          "indexed": true,
          "name": "creator",
          "type": "address"
        },
        {
          "indexed": false,
          "name": "tokenId",
          "type": "uint256"
        }
      ],
      "name": "TokenMinted",
      "type": "event",
      "signature": "0xb9144c96c86541f6fa89c9f2f02495cccf4b08cd6643e26d34ee00aa586558a8"
    },
    {
      "anonymous": false,
      "inputs": [
        {
          "indexed": true,
          "name": "tokenId",
          "type": "uint256"
        },
        {
          "indexed": false,
          "name": "claimer",
          "type": "address"
        },
        {
          "indexed": false,
          "name": "amount",
          "type": "uint256"
        }
      ],
      "name": "TokenAwarded",
      "type": "event",
      "signature": "0xb4689112ada51256c737d26e04c6f6633e247dcef17579e7087b233f2097f3ec"
    },
    {
      "anonymous": false,
      "inputs": [
        {
          "indexed": false,
          "name": "from",
          "type": "address"
        },
        {
          "indexed": false,
          "name": "to",
          "type": "address"
        },
        {
          "indexed": false,
          "name": "tokenTypes",
          "type": "uint256[]"
        },
        {
          "indexed": false,
          "name": "amounts",
          "type": "uint256[]"
        }
      ],
      "name": "BatchTransfer",
      "type": "event",
      "signature": "0xf59807b2c31ca3ba212e90599175c120c556422950bac5be656274483e8581df"
    },
    {
      "anonymous": false,
      "inputs": [
        {
          "indexed": true,
          "name": "_from",
          "type": "address"
        },
        {
          "indexed": true,
          "name": "_to",
          "type": "address"
        },
        {
          "indexed": true,
          "name": "_tokenId",
          "type": "uint256"
        }
      ],
      "name": "Transfer",
      "type": "event",
      "signature": "0xddf252ad1be2c89b69c2b068fc378daa952ba7f163c4a11628f55a4df523b3ef"
    },
    {
      "anonymous": false,
      "inputs": [
        {
          "indexed": true,
          "name": "_owner",
          "type": "address"
        },
        {
          "indexed": true,
          "name": "_approved",
          "type": "address"
        },
        {
          "indexed": true,
          "name": "_tokenId",
          "type": "uint256"
        }
      ],
      "name": "Approval",
      "type": "event",
      "signature": "0x8c5be1e5ebec7d5bd14f71427d1e84f3dd0314c0f7b2291e5b200ac8c7c3b925"
    },
    {
      "anonymous": false,
      "inputs": [
        {
          "indexed": true,
          "name": "_owner",
          "type": "address"
        },
        {
          "indexed": true,
          "name": "_operator",
          "type": "address"
        },
        {
          "indexed": false,
          "name": "_approved",
          "type": "bool"
        }
      ],
      "name": "ApprovalForAll",
      "type": "event",
      "signature": "0x17307eab39ab6107e8899845ad3d59bd9653f200f220920489ca2b5937696c31"
    },
    {
      "anonymous": false,
      "inputs": [
        {
          "indexed": true,
          "name": "from",
          "type": "address"
        },
        {
          "indexed": true,
          "name": "to",
          "type": "address"
        },
        {
          "indexed": true,
          "name": "tokenId",
          "type": "uint256"
        },
        {
          "indexed": false,
          "name": "quantity",
          "type": "uint256"
        }
      ],
      "name": "TransferWithQuantity",
      "type": "event",
      "signature": "0x2114851a3e2a54429989f46c1ab0743e37ded205d9bbdfd85635aed5bd595a06"
    },
    {
      "constant": true,
      "inputs": [],
      "name": "name",
      "outputs": [
        {
          "name": "",
          "type": "string"
        }
      ],
      "payable": false,
      "stateMutability": "view",
      "type": "function",
      "signature": "0x06fdde03"
    },
    {
      "constant": true,
      "inputs": [],
      "name": "symbol",
      "outputs": [
        {
          "name": "",
          "type": "string"
        }
      ],
      "payable": false,
      "stateMutability": "view",
      "type": "function",
      "signature": "0x95d89b41"
    },
    {
      "constant": true,
      "inputs": [
        {
          "name": "_tokenId",
          "type": "uint256"
        }
      ],
      "name": "individualSupply",
      "outputs": [
        {
          "name": "",
          "type": "uint256"
        }
      ],
      "payable": false,
      "stateMutability": "view",
      "type": "function",
      "signature": "0x17be1933"
    },
    {
      "constant": false,
      "inputs": [
        {
          "name": "_tokenName",
          "type": "bytes32"
        },
        {
          "name": "_supply",
          "type": "uint256"
        },
        {
          "name": "_priceInGwei",
          "type": "uint256"
        }
      ],
      "name": "mintToken",
      "outputs": [],
      "payable": false,
      "stateMutability": "nonpayable",
      "type": "function",
      "signature": "0x91697583"
    },
    {
      "constant": false,
      "inputs": [
        {
          "name": "_tokenId",
          "type": "uint256"
        },
        {
          "name": "_amount",
          "type": "uint256"
        }
      ],
      "name": "acquireToken",
      "outputs": [],
      "payable": true,
      "stateMutability": "payable",
      "type": "function",
      "signature": "0x88f32da1"
    },
    {
      "constant": false,
      "inputs": [
        {
          "name": "_tokenId",
          "type": "uint256"
        },
        {
          "name": "_amount",
          "type": "uint256"
        }
      ],
      "name": "convertToNFT",
      "outputs": [],
      "payable": false,
      "stateMutability": "nonpayable",
      "type": "function",
      "signature": "0x6dc3ee35"
    },
    {
      "constant": false,
      "inputs": [
        {
          "name": "_tokenId",
          "type": "uint256"
        }
      ],
      "name": "convertToFT",
      "outputs": [],
      "payable": false,
      "stateMutability": "nonpayable",
      "type": "function",
      "signature": "0x7c86bebb"
    }
  ],
  "bytecode": "0x6080604052620f4240600d553480156200001857600080fd5b50620000566301ffc9a77c010000000000000000000000000000000000000000000000000000000002620000da640100000000026401000000009004565b62000093635b5e139f7c010000000000000000000000000000000000000000000000000000000002620000da640100000000026401000000009004565b33600760006101000a81548173ffffffffffffffffffffffffffffffffffffffff021916908373ffffffffffffffffffffffffffffffffffffffff16021790555062000198565b63ffffffff7c010000000000000000000000000000000000000000000000000000000002817bffffffffffffffffffffffffffffffffffffffffffffffffffffffff1916141515156200012c57600080fd5b6001600080837bffffffffffffffffffffffffffffffffffffffffffffffffffffffff19167bffffffffffffffffffffffffffffffffffffffffffffffffffffffff1916815260200190815260200160002060006101000a81548160ff02191690831515021790555050565b614a5180620001a86000396000f3006080604052600436106101d7576000357c0100000000000000000000000000000000000000000000000000000000900463ffffffff168062fdd58e146101dc57806301ffc9a71461023d57806306fdde03146102a1578063081812fc14610331578063095bcdb61461039e578063095ea7b3146103f55780630febdd49146104425780631051db34146104b957806317be1933146104e857806317fad7fc1461052957806318160ddd1461061257806319fa8f501461063d57806321cda790146106a657806323b872dd146107865780632eb2c2d6146107f35780632f745c591461092257806342842e0e146109835780634f558e79146109f05780634f6ccce714610a355780636352211e14610a765780636dc3ee3514610ae35780636e9e48ef14610b1a57806370a0823114610b875780637c86bebb14610bde5780637fb42a3614610c0b57806388f32da114610c3a5780638da5cb5b14610c645780639169758314610cbb57806395d89b4114610d00578063a22cb46514610d90578063b88d4fde14610ddf578063c87b56dd14610e92578063da2bfdb114610f38578063e985e9c514610f81578063f242432a14610ffc578063f4812eb9146110b9578063f926ebaf146110fa578063fe99049a14611179575b600080fd5b3480156101e857600080fd5b50610227600480360381019080803573ffffffffffffffffffffffffffffffffffffffff169060200190929190803590602001909291905050506111f0565b6040518082815260200191505060405180910390f35b34801561024957600080fd5b5061028760048036038101908080357bffffffffffffffffffffffffffffffffffffffffffffffffffffffff1916906020019092919050505061126f565b604051808215151515815260200191505060405180910390f35b3480156102ad57600080fd5b506102b66112d6565b6040518080602001828103825283818151815260200191508051906020019080838360005b838110156102f65780820151818401526020810190506102db565b50505050905090810190601f1680156103235780820380516001836020036101000a031916815260200191505b509250505060405180910390f35b34801561033d57600080fd5b5061035c60048036038101908080359060200190929190505050611313565b604051808273ffffffffffffffffffffffffffffffffffffffff1673ffffffffffffffffffffffffffffffffffffffff16815260200191505060405180910390f35b3480156103aa57600080fd5b506103f3600480360381019080803573ffffffffffffffffffffffffffffffffffffffff1690602001909291908035906020019092919080359060200190929190505050611350565b005b34801561040157600080fd5b50610440600480360381019080803573ffffffffffffffffffffffffffffffffffffffff16906020019092919080359060200190929190505050611361565b005b34801561044e57600080fd5b506104b7600480360381019080803573ffffffffffffffffffffffffffffffffffffffff169060200190929190803573ffffffffffffffffffffffffffffffffffffffff169060200190929190803590602001909291908035906020019092919050505061159e565b005b3480156104c557600080fd5b506104ce6115c1565b604051808215151515815260200191505060405180910390f35b3480156104f457600080fd5b50610513600480360381019080803590602001909291905050506115ca565b6040518082815260200191505060405180910390f35b34801561053557600080fd5b50610610600480360381019080803573ffffffffffffffffffffffffffffffffffffffff169060200190929190803573ffffffffffffffffffffffffffffffffffffffff16906020019092919080359060200190820180359060200190808060200260200160405190810160405280939291908181526020018383602002808284378201915050505050509192919290803590602001908201803590602001908080602002602001604051908101604052809392919081815260200183836020028082843782019150505050505091929192905050506115e7565b005b34801561061e57600080fd5b506106276115f9565b6040518082815260200191505060405180910390f35b34801561064957600080fd5b50610652611606565b60405180827bffffffffffffffffffffffffffffffffffffffffffffffffffffffff19167bffffffffffffffffffffffffffffffffffffffffffffffffffffffff1916815260200191505060405180910390f35b3480156106b257600080fd5b506106e7600480360381019080803573ffffffffffffffffffffffffffffffffffffffff16906020019092919050505061162d565b604051808060200180602001838103835285818151815260200191508051906020019060200280838360005b8381101561072e578082015181840152602081019050610713565b50505050905001838103825284818151815260200191508051906020019060200280838360005b83811015610770578082015181840152602081019050610755565b5050505090500194505050505060405180910390f35b34801561079257600080fd5b506107f1600480360381019080803573ffffffffffffffffffffffffffffffffffffffff169060200190929190803573ffffffffffffffffffffffffffffffffffffffff16906020019092919080359060200190929190505050611838565b005b3480156107ff57600080fd5b50610920600480360381019080803573ffffffffffffffffffffffffffffffffffffffff169060200190929190803573ffffffffffffffffffffffffffffffffffffffff1690602001909291908035906020019082018035906020019080806020026020016040519081016040528093929190818152602001838360200280828437820191505050505050919291929080359060200190820180359060200190808060200260200160405190810160405280939291908181526020018383602002808284378201915050505050509192919290803590602001908201803590602001908080601f0160208091040260200160405190810160405280939291908181526020018383808284378201915050505050509192919290505050611848565b005b34801561092e57600080fd5b5061096d600480360381019080803573ffffffffffffffffffffffffffffffffffffffff16906020019092919080359060200190929190505050611b66565b6040518082815260200191505060405180910390f35b34801561098f57600080fd5b506109ee600480360381019080803573ffffffffffffffffffffffffffffffffffffffff169060200190929190803573ffffffffffffffffffffffffffffffffffffffff16906020019092919080359060200190929190505050611b71565b005b3480156109fc57600080fd5b50610a1b60048036038101908080359060200190929190505050611b92565b604051808215151515815260200191505060405180910390f35b348015610a4157600080fd5b50610a6060048036038101908080359060200190929190505050611bb2565b6040518082815260200191505060405180910390f35b348015610a8257600080fd5b50610aa160048036038101908080359060200190929190505050611c53565b604051808273ffffffffffffffffffffffffffffffffffffffff1673ffffffffffffffffffffffffffffffffffffffff16815260200191505060405180910390f35b348015610aef57600080fd5b50610b186004803603810190808035906020019092919080359060200190929190505050611d67565b005b348015610b2657600080fd5b50610b4560048036038101908080359060200190929190505050611ed9565b604051808273ffffffffffffffffffffffffffffffffffffffff1673ffffffffffffffffffffffffffffffffffffffff16815260200191505060405180910390f35b348015610b9357600080fd5b50610bc8600480360381019080803573ffffffffffffffffffffffffffffffffffffffff169060200190929190505050611f0c565b6040518082815260200191505060405180910390f35b348015610bea57600080fd5b50610c0960048036038101908080359060200190929190505050611f26565b005b348015610c1757600080fd5b50610c20612108565b604051808215151515815260200191505060405180910390f35b610c626004803603810190808035906020019092919080359060200190929190505050612111565b005b348015610c7057600080fd5b50610c79612432565b604051808273ffffffffffffffffffffffffffffffffffffffff1673ffffffffffffffffffffffffffffffffffffffff16815260200191505060405180910390f35b348015610cc757600080fd5b50610cfe60048036038101908080356000191690602001909291908035906020019092919080359060200190929190505050612458565b005b348015610d0c57600080fd5b50610d156126d6565b6040518080602001828103825283818151815260200191508051906020019080838360005b83811015610d55578082015181840152602081019050610d3a565b50505050905090810190601f168015610d825780820380516001836020036101000a031916815260200191505b509250505060405180910390f35b348015610d9c57600080fd5b50610ddd600480360381019080803573ffffffffffffffffffffffffffffffffffffffff169060200190929190803515159060200190929190505050612713565b005b348015610deb57600080fd5b50610e90600480360381019080803573ffffffffffffffffffffffffffffffffffffffff169060200190929190803573ffffffffffffffffffffffffffffffffffffffff16906020019092919080359060200190929190803590602001908201803590602001908080601f0160208091040260200160405190810160405280939291908181526020018383808284378201915050505050509192919290505050612814565b005b348015610e9e57600080fd5b50610ebd600480360381019080803590602001909291905050506128cb565b6040518080602001828103825283818151815260200191508051906020019080838360005b83811015610efd578082015181840152602081019050610ee2565b50505050905090810190601f168015610f2a5780820380516001836020036101000a031916815260200191505b509250505060405180910390f35b348015610f4457600080fd5b50610f6360048036038101908080359060200190929190505050612ca7565b60405180826000191660001916815260200191505060405180910390f35b348015610f8d57600080fd5b50610fe2600480360381019080803573ffffffffffffffffffffffffffffffffffffffff169060200190929190803573ffffffffffffffffffffffffffffffffffffffff169060200190929190505050612cbf565b604051808215151515815260200191505060405180910390f35b34801561100857600080fd5b506110b7600480360381019080803573ffffffffffffffffffffffffffffffffffffffff169060200190929190803573ffffffffffffffffffffffffffffffffffffffff1690602001909291908035906020019092919080359060200190929190803590602001908201803590602001908080601f0160208091040260200160405190810160405280939291908181526020018383808284378201915050505050509192919290505050612d53565b005b3480156110c557600080fd5b506110e460048036038101908080359060200190929190505050612e0d565b6040518082815260200191505060405180910390f35b34801561110657600080fd5b5061112560048036038101908080359060200190929190505050612e25565b604051808473ffffffffffffffffffffffffffffffffffffffff1673ffffffffffffffffffffffffffffffffffffffff16815260200183815260200182151515158152602001935050505060405180910390f35b34801561118557600080fd5b506111ee600480360381019080803573ffffffffffffffffffffffffffffffffffffffff169060200190929190803573ffffffffffffffffffffffffffffffffffffffff1690602001909291908035906020019092919080359060200190929190505050612e7c565b005b60008060006111fe84612e8e565b9150915061126581600260008873ffffffffffffffffffffffffffffffffffffffff1673ffffffffffffffffffffffffffffffffffffffff168152602001908152602001600020600085815260200190815260200160002054612ecb90919063ffffffff16565b9250505092915050565b6000806000837bffffffffffffffffffffffffffffffffffffffffffffffffffffffff19167bffffffffffffffffffffffffffffffffffffffffffffffffffffffff1916815260200190815260200160002060009054906101000a900460ff169050919050565b60606040805190810160405280600581526020017f4e6f6e6365000000000000000000000000000000000000000000000000000000815250905090565b60006005600083815260200190815260200160002060009054906101000a900473ffffffffffffffffffffffffffffffffffffffff169050919050565b61135c33848484612eff565b505050565b600061136c82611c53565b90508073ffffffffffffffffffffffffffffffffffffffff168373ffffffffffffffffffffffffffffffffffffffff1614151515611412576040517f08c379a00000000000000000000000000000000000000000000000000000000081526004018080602001828103825260138152602001807f43616e27742073656e6420746f206f776e65720000000000000000000000000081525060200191505060405180910390fd5b8073ffffffffffffffffffffffffffffffffffffffff163373ffffffffffffffffffffffffffffffffffffffff16148061145257506114518133612cbf565b5b15156114ec576040517f08c379a00000000000000000000000000000000000000000000000000000000081526004018080602001828103825260278152602001807f53656e646572206d7573742062652076616c696420617070726f766572206f7281526020017f2073656e6465720000000000000000000000000000000000000000000000000081525060400191505060405180910390fd5b826005600084815260200190815260200160002060006101000a81548173ffffffffffffffffffffffffffffffffffffffff021916908373ffffffffffffffffffffffffffffffffffffffff160217905550818373ffffffffffffffffffffffffffffffffffffffff168273ffffffffffffffffffffffffffffffffffffffff167f8c5be1e5ebec7d5bd14f71427d1e84f3dd0314c0f7b2291e5b200ac8c7c3b92560405160405180910390a4505050565b6115bb848484846020604051908101604052806000815250612d53565b50505050565b60006001905090565b600060086000838152602001908152602001600020549050919050565b6115f3848484846132b8565b50505050565b6000600180549050905090565b6301ffc9a77c01000000000000000000000000000000000000000000000000000000000281565b606080600060608060008060006060806116456115f9565b9750876040519080825280602002602001820160405280156116765781602001602082028038833980820191505090505b509650876040519080825280602002602001820160405280156116a85781602001602082028038833980820191505090505b509550600093505b8784101561173f576001848154811015156116c757fe5b9060005260206000200154925060006116e08c856111f0565b1115611732576116f08b846111f0565b86868151811015156116fe57fe5b906020019060200201818152505082878681518110151561171b57fe5b906020019060200201818152505084806001019550505b83806001019450506116b0565b8460405190808252806020026020018201604052801561176e5781602001602082028038833980820191505090505b509150846040519080825280602002602001820160405280156117a05781602001602082028038833980820191505090505b509050600093505b848410156118255785848151811015156117be57fe5b9060200190602002015182858151811015156117d657fe5b906020019060200201818152505086848151811015156117f257fe5b90602001906020020151818581518110151561180a57fe5b906020019060200201818152505083806001019450506117a8565b8082995099505050505050505050915091565b611843838383613c7f565b505050565b6000611856868686866132b8565b6118758573ffffffffffffffffffffffffffffffffffffffff16613f04565b15611b5e578473ffffffffffffffffffffffffffffffffffffffff1663b3b0f4c733888787876040518663ffffffff167c0100000000000000000000000000000000000000000000000000000000028152600401808673ffffffffffffffffffffffffffffffffffffffff1673ffffffffffffffffffffffffffffffffffffffff1681526020018573ffffffffffffffffffffffffffffffffffffffff1673ffffffffffffffffffffffffffffffffffffffff168152602001806020018060200180602001848103845287818151815260200191508051906020019060200280838360005b8381101561197557808201518184015260208101905061195a565b50505050905001848103835286818151815260200191508051906020019060200280838360005b838110156119b757808201518184015260208101905061199c565b50505050905001848103825285818151815260200191508051906020019080838360005b838110156119f65780820151818401526020810190506119db565b50505050905090810190601f168015611a235780820380516001836020036101000a031916815260200191505b5098505050505050505050602060405180830381600087803b158015611a4857600080fd5b505af1158015611a5c573d6000803e3d6000fd5b505050506040513d6020811015611a7257600080fd5b8101908080519060200190929190505050905063e9e5be6a7c0100000000000000000000000000000000000000000000000000000000027bffffffffffffffffffffffffffffffffffffffffffffffffffffffff1916817bffffffffffffffffffffffffffffffffffffffffffffffffffffffff1916141515611b5d576040517f08c379a00000000000000000000000000000000000000000000000000000000081526004018080602001828103825260168152602001807f496e636f72726563742072657475726e2076616c75650000000000000000000081525060200191505060405180910390fd5b5b505050505050565b600080905092915050565b611b8d8383836020604051908101604052806000815250612814565b505050565b600080600660008481526020019081526020016000205414159050919050565b6000611bbc6115f9565b82101515611c32576040517f08c379a00000000000000000000000000000000000000000000000000000000081526004018080602001828103825260158152602001807f746f6b656e20696e646578206e6f7420666f756e64000000000000000000000081525060200191505060405180910390fd5b600182815481101515611c4157fe5b90600052602060002001549050919050565b60008073ffffffffffffffffffffffffffffffffffffffff166003600084815260200190815260200160002060009054906101000a900473ffffffffffffffffffffffffffffffffffffffff1673ffffffffffffffffffffffffffffffffffffffff1614151515611d2c576040517f08c379a00000000000000000000000000000000000000000000000000000000081526004018080602001828103825260138152602001807f436f696e20646f6573206e6f742065786973740000000000000000000000000081525060200191505060405180910390fd5b6003600083815260200190815260200160002060009054906101000a900473ffffffffffffffffffffffffffffffffffffffff169050919050565b600060026006600085815260200190815260200160002054141515611df4576040517f08c379a000000000000000000000000000000000000000000000000000000000815260040180806020018281038252600d8152602001807f416c72656164792061204e46540000000000000000000000000000000000000081525060200191505060405180910390fd5b611dfe33846111f0565b8211151515611e75576040517f08c379a000000000000000000000000000000000000000000000000000000000815260040180806020018281038252601c8152602001807f596f7520646f206e6f74206f776e20656e6f75676820746f6b656e730000000081525060200191505060405180910390fd5b611e823384846001613f17565b600090505b81811015611ed457611e9b600d5433613fea565b82600c6000600d54815260200190815260200160002081905550600d600081548092919060010191905055508080600101915050611e87565b505050565b60096020528060005260406000206000915054906101000a900473ffffffffffffffffffffffffffffffffffffffff1681565b60006060611f198361162d565b9150508051915050919050565b60016006600083815260200190815260200160002054141515611fb1576040517f08c379a00000000000000000000000000000000000000000000000000000000081526004018080602001828103825260148152602001807f546f6b656e206d75737420626520616e204e465400000000000000000000000081525060200191505060405180910390fd5b3373ffffffffffffffffffffffffffffffffffffffff16611fd182611c53565b73ffffffffffffffffffffffffffffffffffffffff1614151561205c576040517f08c379a00000000000000000000000000000000000000000000000000000000081526004018080602001828103825260198152602001807f596f7520646f206e6f74206f776e207468697320746f6b656e0000000000000081525060200191505060405180910390fd5b61206a338260006002613f17565b61208b33600c60008481526020019081526020016000205460016000613f17565b600c6000828152602001908152602001600020543373ffffffffffffffffffffffffffffffffffffffff163073ffffffffffffffffffffffffffffffffffffffff167f2114851a3e2a54429989f46c1ab0743e37ded205d9bbdfd85635aed5bd595a0660016040518082815260200191505060405180910390a450565b60006001905090565b61211a82611b92565b151561218e576040517f08c379a000000000000000000000000000000000000000000000000000000000815260040180806020018281038252601b8152602001807f546f6b656e494420686173206e6f74206265656e206d696e746564000000000081525060200191505060405180910390fd5b600b60008381526020019081526020016000205434141515612218576040517f08c379a00000000000000000000000000000000000000000000000000000000081526004018080602001828103825260198152602001807f496e636f727265637420707269636520666f7220746f6b656e0000000000000081525060200191505060405180910390fd5b6009600083815260200190815260200160002060009054906101000a900473ffffffffffffffffffffffffffffffffffffffff1673ffffffffffffffffffffffffffffffffffffffff163373ffffffffffffffffffffffffffffffffffffffff16141515156122ef576040517f08c379a00000000000000000000000000000000000000000000000000000000081526004018080602001828103825260188152602001807f43616e27742062757920796f7572206f776e20746f6b656e000000000000000081525060200191505060405180910390fd5b60006122fa836115ca565b11156123b55761230a33836111f0565b81111515156123a7576040517f08c379a00000000000000000000000000000000000000000000000000000000081526004018080602001828103825260278152602001807f5175616e746974792067726561746572207468616e20617661696c61626c652081526020017f62616c616e63650000000000000000000000000000000000000000000000000081525060400191505060405180910390fd5b6123b43083836001613f17565b5b6123c23383836000613f17565b817fb4689112ada51256c737d26e04c6f6633e247dcef17579e7087b233f2097f3ec3383604051808373ffffffffffffffffffffffffffffffffffffffff1673ffffffffffffffffffffffffffffffffffffffff1681526020018281526020019250505060405180910390a25050565b600760009054906101000a900473ffffffffffffffffffffffffffffffffffffffff1681565b6000338443604051602001808473ffffffffffffffffffffffffffffffffffffffff1673ffffffffffffffffffffffffffffffffffffffff166c01000000000000000000000000028152601401836000191660001916815260200182815260200193505050506040516020818303038152906040526040518082805190602001908083835b60208310151561250257805182526020820191506020810190506020830392506124dd565b6001836020036101000a038019825116818451168082178552505050505050905001915050604051809103902060019004905061253e81611b92565b1515156125d9576040517f08c379a00000000000000000000000000000000000000000000000000000000081526004018080602001828103825260278152602001807f4572726f723a20547269656420746f206d696e74206475706c6963617465207481526020017f6f6b656e2069640000000000000000000000000000000000000000000000000081525060400191505060405180910390fd5b6125e4813385614192565b826008600083815260200190815260200160002081905550336009600083815260200190815260200160002060006101000a81548173ffffffffffffffffffffffffffffffffffffffff021916908373ffffffffffffffffffffffffffffffffffffffff16021790555083600a6000838152602001908152602001600020816000191690555081600b6000838152602001908152602001600020819055503373ffffffffffffffffffffffffffffffffffffffff167fb9144c96c86541f6fa89c9f2f02495cccf4b08cd6643e26d34ee00aa586558a8826040518082815260200191505060405180910390a250505050565b60606040805190810160405280600581526020017f4e4f4e4345000000000000000000000000000000000000000000000000000000815250905090565b80600460003373ffffffffffffffffffffffffffffffffffffffff1673ffffffffffffffffffffffffffffffffffffffff16815260200190815260200160002060008473ffffffffffffffffffffffffffffffffffffffff1673ffffffffffffffffffffffffffffffffffffffff16815260200190815260200160002060006101000a81548160ff0219169083151502179055508173ffffffffffffffffffffffffffffffffffffffff163373ffffffffffffffffffffffffffffffffffffffff167f17307eab39ab6107e8899845ad3d59bd9653f200f220920489ca2b5937696c3183604051808215151515815260200191505060405180910390a35050565b61281f848484613c7f565b61282b848484846142ef565b15156128c5576040517f08c379a00000000000000000000000000000000000000000000000000000000081526004018080602001828103825260328152602001807f53656e7420746f206120636f6e7472616374207768696368206973206e6f742081526020017f616e20455243373231207265636569766572000000000000000000000000000081525060400191505060405180910390fd5b50505050565b6060806128d783611b92565b151561294b576040517f08c379a00000000000000000000000000000000000000000000000000000000081526004018080602001828103825260138152602001807f546f6b656e20646f65736e27742065786973740000000000000000000000000081525060200191505060405180910390fd5b606060405190810160405280603181526020017f68747470733a2f2f72696e6b6562792e6c6f6f6d2e67616d65732f657263373281526020017f312f7a6d622f3030303030302e6a736f6e0000000000000000000000000000008152509150819050600a620186a0848115156129bd57fe5b048115156129c757fe5b066030017f0100000000000000000000000000000000000000000000000000000000000000028160268151811015156129fc57fe5b9060200101907effffffffffffffffffffffffffffffffffffffffffffffffffffffffffffff1916908160001a905350600a61271084811515612a3b57fe5b04811515612a4557fe5b066030017f010000000000000000000000000000000000000000000000000000000000000002816027815181101515612a7a57fe5b9060200101907effffffffffffffffffffffffffffffffffffffffffffffffffffffffffffff1916908160001a905350600a6103e884811515612ab957fe5b04811515612ac357fe5b066030017f010000000000000000000000000000000000000000000000000000000000000002816028815181101515612af857fe5b9060200101907effffffffffffffffffffffffffffffffffffffffffffffffffffffffffffff1916908160001a905350600a606484811515612b3657fe5b04811515612b4057fe5b066030017f010000000000000000000000000000000000000000000000000000000000000002816029815181101515612b7557fe5b9060200101907effffffffffffffffffffffffffffffffffffffffffffffffffffffffffffff1916908160001a905350600a8084811515612bb257fe5b04811515612bbc57fe5b066030017f01000000000000000000000000000000000000000000000000000000000000000281602a815181101515612bf157fe5b9060200101907effffffffffffffffffffffffffffffffffffffffffffffffffffffffffffff1916908160001a905350600a600184811515612c2f57fe5b04811515612c3957fe5b066030017f01000000000000000000000000000000000000000000000000000000000000000281602b815181101515612c6e57fe5b9060200101907effffffffffffffffffffffffffffffffffffffffffffffffffffffffffffff1916908160001a90535081915050919050565b600a6020528060005260406000206000915090505481565b6000600460008473ffffffffffffffffffffffffffffffffffffffff1673ffffffffffffffffffffffffffffffffffffffff16815260200190815260200160002060008373ffffffffffffffffffffffffffffffffffffffff1673ffffffffffffffffffffffffffffffffffffffff16815260200190815260200160002060009054906101000a900460ff16905092915050565b612d5f85858585612eff565b612d6c8585858585614511565b1515612e06576040517f08c379a00000000000000000000000000000000000000000000000000000000081526004018080602001828103825260338152602001807f53656e7420746f206120636f6e7472616374207768696368206973206e6f742081526020017f616e20455243373231582072656365697665720000000000000000000000000081525060400191505060405180910390fd5b5050505050565b600b6020528060005260406000206000915090505481565b600e6020528060005260406000206000915090508060000160009054906101000a900473ffffffffffffffffffffffffffffffffffffffff16908060010154908060020160009054906101000a900460ff16905083565b612e8884848484612eff565b50505050565b60008061010060108402811515612ea157fe5b0491506010610100811515612eb257fe5b0483811515612ebd57fe5b069050818191509150915091565b60008060006001601060019060020a02039150600184016010026101000390508181869060020a9004169250505092915050565b838073ffffffffffffffffffffffffffffffffffffffff163373ffffffffffffffffffffffffffffffffffffffff161480612fc05750600460008273ffffffffffffffffffffffffffffffffffffffff1673ffffffffffffffffffffffffffffffffffffffff16815260200190815260200160002060003373ffffffffffffffffffffffffffffffffffffffff1673ffffffffffffffffffffffffffffffffffffffff16815260200190815260200160002060009054906101000a900460ff165b151561305a576040517f08c379a00000000000000000000000000000000000000000000000000000000081526004018080602001828103825260288152602001807f6d73672e73656e646572206973206e656974686572205f66726f6d206e6f722081526020017f6f70657261746f7200000000000000000000000000000000000000000000000081525060400191505060405180910390fd5b600260066000858152602001908152602001600020541415156130e5576040517f08c379a00000000000000000000000000000000000000000000000000000000081526004018080602001828103825260148152602001807f4e6f7420612066756e6769626c6520746f6b656e00000000000000000000000081525060200191505060405180910390fd5b6130ef85846111f0565b821115151561318c576040517f08c379a00000000000000000000000000000000000000000000000000000000081526004018080602001828103825260228152602001807f5175616e746974792067726561746572207468616e2066726f6d2062616c616e81526020017f636500000000000000000000000000000000000000000000000000000000000081525060400191505060405180910390fd5b600073ffffffffffffffffffffffffffffffffffffffff168473ffffffffffffffffffffffffffffffffffffffff1614151515613231576040517f08c379a00000000000000000000000000000000000000000000000000000000081526004018080602001828103825260128152602001807f496e76616c696420746f2061646472657373000000000000000000000000000081525060200191505060405180910390fd5b61323e8584846001613f17565b61324b8484846000613f17565b828473ffffffffffffffffffffffffffffffffffffffff168673ffffffffffffffffffffffffffffffffffffffff167f2114851a3e2a54429989f46c1ab0743e37ded205d9bbdfd85635aed5bd595a06856040518082815260200191505060405180910390a45050505050565b60008060008060008060008a8073ffffffffffffffffffffffffffffffffffffffff163373ffffffffffffffffffffffffffffffffffffffff1614806133845750600460008273ffffffffffffffffffffffffffffffffffffffff1673ffffffffffffffffffffffffffffffffffffffff16815260200190815260200160002060003373ffffffffffffffffffffffffffffffffffffffff1673ffffffffffffffffffffffffffffffffffffffff16815260200190815260200160002060009054906101000a900460ff165b151561341e576040517f08c379a00000000000000000000000000000000000000000000000000000000081526004018080602001828103825260288152602001807f6d73672e73656e646572206973206e656974686572205f66726f6d206e6f722081526020017f6f70657261746f7200000000000000000000000000000000000000000000000081525060400191505060405180910390fd5b88518a511415156134bd576040517f08c379a00000000000000000000000000000000000000000000000000000000081526004018080602001828103825260268152602001807f496e636f6e73697374656e74206172726179206c656e6774682062657477656581526020017f6e2061726773000000000000000000000000000000000000000000000000000081525060400191505060405180910390fd5b600073ffffffffffffffffffffffffffffffffffffffff168b73ffffffffffffffffffffffffffffffffffffffff1614151515613562576040517f08c379a00000000000000000000000000000000000000000000000000000000081526004018080602001828103825260118152602001807f496e76616c696420726563697069656e7400000000000000000000000000000081525060200191505060405180910390fd5b6001600660008c600081518110151561357757fe5b906020019060200201518152602001908152602001600020541415613674578a600360008c60008151811015156135aa57fe5b90602001906020020151815260200190815260200160002060006101000a81548173ffffffffffffffffffffffffffffffffffffffff021916908373ffffffffffffffffffffffffffffffffffffffff16021790555089600081518110151561360f57fe5b906020019060200201518b73ffffffffffffffffffffffffffffffffffffffff168d73ffffffffffffffffffffffffffffffffffffffff167fddf252ad1be2c89b69c2b068fc378daa952ba7f163c4a11628f55a4df523b3ef60405160405180910390a45b6136958a600081518110151561368657fe5b90602001906020020151612e8e565b9750975061370e600260008e73ffffffffffffffffffffffffffffffffffffffff1673ffffffffffffffffffffffffffffffffffffffff16815260200190815260200160002060008a815260200190815260200160002054888b60008151811015156136fd57fe5b90602001906020020151600161473c565b9550613785600260008d73ffffffffffffffffffffffffffffffffffffffff1673ffffffffffffffffffffffffffffffffffffffff16815260200190815260200160002060008a815260200190815260200160002054888b600081518110151561377457fe5b90602001906020020151600061473c565b945089519350879250600191505b83821015613a9e576001600660008c858151811015156137af57fe5b9060200190602002015181526020019081526020016000205414156138aa578a600360008c858151811015156137e157fe5b90602001906020020151815260200190815260200160002060006101000a81548173ffffffffffffffffffffffffffffffffffffffff021916908373ffffffffffffffffffffffffffffffffffffffff160217905550898281518110151561384557fe5b906020019060200201518b73ffffffffffffffffffffffffffffffffffffffff168d73ffffffffffffffffffffffffffffffffffffffff167fddf252ad1be2c89b69c2b068fc378daa952ba7f163c4a11628f55a4df523b3ef60405160405180910390a45b6138ca8a838151811015156138bb57fe5b90602001906020020151612e8e565b80985081995050508288141515613a2f5785600260008e73ffffffffffffffffffffffffffffffffffffffff1673ffffffffffffffffffffffffffffffffffffffff16815260200190815260200160002060008581526020019081526020016000208190555084600260008d73ffffffffffffffffffffffffffffffffffffffff1673ffffffffffffffffffffffffffffffffffffffff168152602001908152602001600020600085815260200190815260200160002081905550600260008d73ffffffffffffffffffffffffffffffffffffffff1673ffffffffffffffffffffffffffffffffffffffff1681526020019081526020016000206000898152602001908152602001600020549550600260008c73ffffffffffffffffffffffffffffffffffffffff1673ffffffffffffffffffffffffffffffffffffffff16815260200190815260200160002060008981526020019081526020016000205494508792505b613a5e878a84815181101515613a4157fe5b9060200190602002015160018961473c909392919063ffffffff16565b9550613a8f878a84815181101515613a7257fe5b9060200190602002015160008861473c909392919063ffffffff16565b94508180600101925050613793565b85600260008e73ffffffffffffffffffffffffffffffffffffffff1673ffffffffffffffffffffffffffffffffffffffff16815260200190815260200160002060008a81526020019081526020016000208190555084600260008d73ffffffffffffffffffffffffffffffffffffffff1673ffffffffffffffffffffffffffffffffffffffff16815260200190815260200160002060008a8152602001908152602001600020819055507ff59807b2c31ca3ba212e90599175c120c556422950bac5be656274483e8581df8c8c8c8c604051808573ffffffffffffffffffffffffffffffffffffffff1673ffffffffffffffffffffffffffffffffffffffff1681526020018473ffffffffffffffffffffffffffffffffffffffff1673ffffffffffffffffffffffffffffffffffffffff1681526020018060200180602001838103835285818151815260200191508051906020019060200280838360005b83811015613c18578082015181840152602081019050613bfd565b50505050905001838103825284818151815260200191508051906020019060200280838360005b83811015613c5a578082015181840152602081019050613c3f565b50505050905001965050505050505060405180910390a1505050505050505050505050565b60016006600083815260200190815260200160002054141515613d0a576040517f08c379a000000000000000000000000000000000000000000000000000000000815260040180806020018281038252600a8152602001807f4e6f7420616e204e46540000000000000000000000000000000000000000000081525060200191505060405180910390fd5b613d1d83613d1783611c53565b83614889565b1515613d91576040517f08c379a00000000000000000000000000000000000000000000000000000000081526004018080602001828103825260158152602001807f4e6f7420617070726f766564206f72206f776e6572000000000000000000000081525060200191505060405180910390fd5b600073ffffffffffffffffffffffffffffffffffffffff168273ffffffffffffffffffffffffffffffffffffffff1614151515613e36576040517f08c379a00000000000000000000000000000000000000000000000000000000081526004018080602001828103825260128152602001807f496e76616c696420746f2061646472657373000000000000000000000000000081525060200191505060405180910390fd5b613e44838260006002613f17565b613e52828260016002613f17565b816003600083815260200190815260200160002060006101000a81548173ffffffffffffffffffffffffffffffffffffffff021916908373ffffffffffffffffffffffffffffffffffffffff160217905550808273ffffffffffffffffffffffffffffffffffffffff168473ffffffffffffffffffffffffffffffffffffffff167fddf252ad1be2c89b69c2b068fc378daa952ba7f163c4a11628f55a4df523b3ef60405160405180910390a4505050565b600080823b905060008111915050919050565b600080613f2385612e8e565b91509150613f8e818585600260008b73ffffffffffffffffffffffffffffffffffffffff1673ffffffffffffffffffffffffffffffffffffffff16815260200190815260200160002060008781526020019081526020016000205461473c909392919063ffffffff16565b600260008873ffffffffffffffffffffffffffffffffffffffff1673ffffffffffffffffffffffffffffffffffffffff168152602001908152602001600020600084815260200190815260200160002081905550505050505050565b613ff382611b92565b15151561408e576040517f08c379a00000000000000000000000000000000000000000000000000000000081526004018080602001828103825260278152602001807f4572726f723a20547269656420746f206d696e74206475706c6963617465207481526020017f6f6b656e2069640000000000000000000000000000000000000000000000000081525060400191505060405180910390fd5b61409c818360016002613f17565b806003600084815260200190815260200160002060006101000a81548173ffffffffffffffffffffffffffffffffffffffff021916908373ffffffffffffffffffffffffffffffffffffffff160217905550600160066000848152602001908152602001600020819055506001829080600181540180825580915050906001820390600052602060002001600090919290919091505550818173ffffffffffffffffffffffffffffffffffffffff163073ffffffffffffffffffffffffffffffffffffffff167fddf252ad1be2c89b69c2b068fc378daa952ba7f163c4a11628f55a4df523b3ef60405160405180910390a45050565b61419b83611b92565b15156141eb57600260066000858152602001908152602001600020819055506001839080600181540180825580915050906001820390600052602060002001600090919290919091505550614277565b60026006600085815260200190815260200160002054141515614276576040517f08c379a00000000000000000000000000000000000000000000000000000000081526004018080602001828103825260088152602001807f4e6f74206120465400000000000000000000000000000000000000000000000081525060200191505060405180910390fd5b5b6142848284836000613f17565b828273ffffffffffffffffffffffffffffffffffffffff163073ffffffffffffffffffffffffffffffffffffffff167f2114851a3e2a54429989f46c1ab0743e37ded205d9bbdfd85635aed5bd595a06846040518082815260200191505060405180910390a4505050565b6000806143118573ffffffffffffffffffffffffffffffffffffffff16613f04565b15156143205760019150614508565b8473ffffffffffffffffffffffffffffffffffffffff1663150b7a02338887876040518563ffffffff167c0100000000000000000000000000000000000000000000000000000000028152600401808573ffffffffffffffffffffffffffffffffffffffff1673ffffffffffffffffffffffffffffffffffffffff1681526020018473ffffffffffffffffffffffffffffffffffffffff1673ffffffffffffffffffffffffffffffffffffffff16815260200183815260200180602001828103825283818151815260200191508051906020019080838360005b838110156144155780820151818401526020810190506143fa565b50505050905090810190601f1680156144425780820380516001836020036101000a031916815260200191505b5095505050505050602060405180830381600087803b15801561446457600080fd5b505af1158015614478573d6000803e3d6000fd5b505050506040513d602081101561448e57600080fd5b8101908080519060200190929190505050905063150b7a027c0100000000000000000000000000000000000000000000000000000000027bffffffffffffffffffffffffffffffffffffffffffffffffffffffff1916817bffffffffffffffffffffffffffffffffffffffffffffffffffffffff19161491505b50949350505050565b6000806145338673ffffffffffffffffffffffffffffffffffffffff16613f04565b15156145425760019150614732565b8573ffffffffffffffffffffffffffffffffffffffff166393ba7daa33898888886040518663ffffffff167c0100000000000000000000000000000000000000000000000000000000028152600401808673ffffffffffffffffffffffffffffffffffffffff1673ffffffffffffffffffffffffffffffffffffffff1681526020018573ffffffffffffffffffffffffffffffffffffffff1673ffffffffffffffffffffffffffffffffffffffff16815260200184815260200183815260200180602001828103825283818151815260200191508051906020019080838360005b8381101561463e578082015181840152602081019050614623565b50505050905090810190601f16801561466b5780820380516001836020036101000a031916815260200191505b509650505050505050602060405180830381600087803b15801561468e57600080fd5b505af11580156146a2573d6000803e3d6000fd5b505050506040513d60208110156146b857600080fd5b8101908080519060200190929190505050905063660b33707c0100000000000000000000000000000000000000000000000000000000027bffffffffffffffffffffffffffffffffffffffffffffffffffffffff1916817bffffffffffffffffffffffffffffffffffffffffffffffffffffffff19161491505b5095945050505050565b6000806000600281111561474c57fe5b83600281111561475857fe5b141561478e576147688686612ecb565b90506147878686614782878561491290919063ffffffff16565b61492e565b915061487d565b6001600281111561479b57fe5b8360028111156147a757fe5b14156147dd576147b78686612ecb565b90506147d686866147d18785614a0c90919063ffffffff16565b61492e565b915061487c565b6002808111156147e957fe5b8360028111156147f557fe5b141561480d5761480686868661492e565b915061487b565b6040517f08c379a00000000000000000000000000000000000000000000000000000000081526004018080602001828103825260118152602001807f496e76616c6964206f7065726174696f6e00000000000000000000000000000081525060200191505060405180910390fd5b5b5b81915050949350505050565b60008273ffffffffffffffffffffffffffffffffffffffff168473ffffffffffffffffffffffffffffffffffffffff1614806148f857508373ffffffffffffffffffffffffffffffffffffffff166148e083611313565b73ffffffffffffffffffffffffffffffffffffffff16145b8061490957506149088385612cbf565b5b90509392505050565b6000818301905082811015151561492557fe5b80905092915050565b6000806000601060020a841015156149d4576040517f08c379a00000000000000000000000000000000000000000000000000000000081526004018080602001828103825260238152602001807f416d6f756e7420746f20777269746520696e2062696e20697320746f6f206c6181526020017f726765000000000000000000000000000000000000000000000000000000000081525060400191505060405180910390fd5b6001601060019060020a020391506001850160100261010003905080849060020a0281839060020a0219871617925050509392505050565b6000828211151515614a1a57fe5b8183039050929150505600a165627a7a723058204085a29b92ab5b32aaa67b270ff39335b587dc21ada1f9845a7f2ae5baf398990029",
  "source": "pragma solidity ^0.4.24;\n\nimport \"./ERC721X/ERC721XToken.sol\";\nimport \"../Helpers/Ownable.sol\";\n\ncontract Nonce is ERC721XToken {\n    function name() external view returns (string) {\n        return \"Nonce\";\n    }\n\n    function symbol() external view returns (string) {\n        return \"NONCE\";\n    }\n\n    address public owner;\n\n    constructor() public {\n        owner = msg.sender;\n    }\n\n    mapping(uint => uint) internal tokenIdToSupply;\n    mapping(uint => address) public tokenIdToOwner;\n    mapping(uint => bytes32) public tokenIdToName;\n    mapping(uint => uint) public tokenIdToPrice;\n\n    event TokenMinted(address indexed creator, uint tokenId);\n    event TokenAwarded(uint indexed tokenId, address claimer, uint amount);\n\n    function individualSupply(uint _tokenId) public view returns (uint) {\n        return tokenIdToSupply[_tokenId];\n    }\n\n    mapping(uint => uint) internal nftTokenIdToMouldId;\n    uint nftTokenIdIndex = 1000000;\n\n    struct TokenEscrow {\n        address tokenOwer;        \n        uint fundsInEscrow;\n        bool finalized;\n    }\n\n     /**\n     * @dev hold funds in escrow until offchain benefit delivered\n     */\n    mapping(uint => TokenEscrow) public tokenEscrow; \n\n    /**\n     * @dev Creates a new unique token, controlled by the creator\n     * @param _tokenName Name given to token by creator\n     * @param _supply Maximum quantity of token available [Enter '0' for unlimited supply token]\n     * @param _priceInGwei Price for other users to buy token [Enter '0' for free token]\n     */\n    function mintToken(bytes32 _tokenName, uint _supply, uint _priceInGwei) public {\n        uint tokenId = uint(keccak256(abi.encodePacked(msg.sender, _tokenName, block.number)));\n        require(!exists(tokenId), \"Error: Tried to mint duplicate token id\");\n        _mint(tokenId, msg.sender, _supply);\n\n        tokenIdToSupply[tokenId] = _supply;\n        tokenIdToOwner[tokenId] = msg.sender;\n        tokenIdToName[tokenId] = _tokenName;\n        tokenIdToPrice[tokenId] = _priceInGwei;\n        \n        emit TokenMinted(msg.sender, tokenId);\n    }\n\n    /**\n     * @dev Assigns a token to purchaser/acquirer\n     * @param _tokenId tokenId\n     * @param _amount quantity of tokens purchased/acquired\n     */\n    function acquireToken(uint _tokenId, uint _amount) public payable { \n        require(exists(_tokenId), \"TokenID has not been minted\"); \n        require(msg.value == tokenIdToPrice[_tokenId], \"Incorrect price for token\");\n        require(msg.sender != tokenIdToOwner[_tokenId], \"Can't buy your own token\");\n\n        if (individualSupply(_tokenId) > 0) { // Fixed supply token\n            require(_amount <= balanceOf(msg.sender, _tokenId), \"Quantity greater than available balance\"); //DOES THIS WORK\n            _updateTokenBalance(address(this), _tokenId, _amount, ObjectLib.Operations.SUB); \n        } \n        _updateTokenBalance(msg.sender, _tokenId, _amount, ObjectLib.Operations.ADD); \n        emit TokenAwarded(_tokenId, msg.sender, _amount); \n    }\n\n     /**\n     * @dev Converts token to NFT with unique ID in order to comply with ERC721 standard on main chain\n     * @param _tokenId tokenId\n     * @param _amount quantity of tokens to be converted\n     */\n    function convertToNFT(uint _tokenId, uint _amount) public {\n        require(tokenType[_tokenId] == FT, \"Already a NFT\");\n        require(_amount <= balanceOf(msg.sender, _tokenId), \"You do not own enough tokens\");\n        _updateTokenBalance(msg.sender, _tokenId, _amount, ObjectLib.Operations.SUB);\n        for (uint i = 0; i < _amount; i++) {\n            _mint(nftTokenIdIndex, msg.sender);\n            nftTokenIdToMouldId[nftTokenIdIndex] = _tokenId;\n            nftTokenIdIndex++;\n        }\n    }\n\n     /**\n     * @dev Converts token back to FT using unique ID to recontextualize ERC721X token in PlasmaChain environment\n     * @param _tokenId tokenId\n     */\n    function convertToFT(uint _tokenId) public {\n        require(tokenType[_tokenId] == NFT, \"Token must be an NFT\");\n        require(ownerOf(_tokenId) == msg.sender, \"You do not own this token\");\n        _updateTokenBalance(msg.sender, _tokenId, 0, ObjectLib.Operations.REPLACE);\n        _updateTokenBalance(msg.sender, nftTokenIdToMouldId[_tokenId], 1, ObjectLib.Operations.ADD);\n        emit TransferWithQuantity(address(this), msg.sender, nftTokenIdToMouldId[_tokenId], 1);\n    }\n\n\n}",
  "sourcePath": "/Users/michaelcohen/Desktop/projects/nonce/dapp/contracts/Core/Nonce.sol",
  "compiler": {
    "name": "solc",
    "version": "0.4.24+commit.e67f0147.Emscripten.clang"
  },
  "schemaVersion": "3.0.0",
  "updatedAt": "2018-12-29T00:23:14.675Z",
  "devdoc": {
    "methods": {
      "acquireToken(uint256,uint256)": {
        "details": "Assigns a token to purchaser/acquirer",
        "params": {
          "_amount": "quantity of tokens purchased/acquired",
          "_tokenId": "tokenId"
        }
      },
      "approve(address,uint256)": {
        "details": "Approves another address to transfer the given token ID The zero address indicates there is no approved address. There can only be one approved address per token at a given time. Can only be called by the token owner or an approved operator.",
        "params": {
          "_to": "address to be approved for the given token ID",
          "_tokenId": "uint256 ID of the token to be approved"
        }
      },
      "balanceOf(address)": {
        "details": "Gets the number of tokens owned by the address we are checking",
        "params": {
          "_owner": "The adddress we are checking"
        },
        "return": "balance The unique amount of tokens owned"
      },
      "balanceOf(address,uint256)": {
        "details": "return the _tokenId type' balance of _address",
        "params": {
          "_address": "Address to query balance of",
          "_tokenId": "type to query balance of"
        },
        "return": "Amount of objects of a given type ID"
      },
      "convertToFT(uint256)": {
        "details": "Converts token back to FT using unique ID to recontextualize ERC721X token in PlasmaChain environment",
        "params": {
          "_tokenId": "tokenId"
        }
      },
      "convertToNFT(uint256,uint256)": {
        "details": "Converts token to NFT with unique ID in order to comply with ERC721 standard on main chain",
        "params": {
          "_amount": "quantity of tokens to be converted",
          "_tokenId": "tokenId"
        }
      },
      "exists(uint256)": {
        "details": "Returns whether the specified token exists",
        "params": {
          "_tokenId": "uint256 ID of the token to query the existence of"
        },
        "return": "whether the token exists"
      },
      "getApproved(uint256)": {
        "details": "Gets the approved address for a token ID, or zero if no address set",
        "params": {
          "_tokenId": "uint256 ID of the token to query the approval of"
        },
        "return": "address currently approved for the given token ID"
      },
      "isApprovedForAll(address,address)": {
        "details": "Function that verifies whether _operator is an authorized operator of _tokenHolder.",
        "params": {
          "_operator": "The address of the operator to query status of",
          "_owner": "Address of the tokenHolder"
        },
        "return": "A uint256 specifying the amount of tokens still available for the spender."
      },
      "mintToken(bytes32,uint256,uint256)": {
        "details": "Creates a new unique token, controlled by the creator",
        "params": {
          "_priceInGwei": "Price for other users to buy token [Enter '0' for free token]",
          "_supply": "Maximum quantity of token available [Enter '0' for unlimited supply token]",
          "_tokenName": "Name given to token by creator"
        }
      },
      "ownerOf(uint256)": {
        "details": "Gets the owner of a given NFT",
        "params": {
          "_tokenId": "uint256 representing the unique token identifier"
        },
        "return": "address the owner of the token"
      },
      "safeBatchTransferFrom(address,address,uint256[],uint256[],bytes)": {
        "details": "transfer objects from different tokenIds to specified address",
        "params": {
          "_amounts": "Array of amount of object per type to be transferred.",
          "_data": "Data to pass to onERC721XReceived() function if recipient is contract Note:  Arrays should be sorted so that all tokenIds in a same bin are adjacent (more efficient).",
          "_from": "The address to BatchTransfer objects from.",
          "_to": "The address to batchTransfer objects to.",
          "_tokenIds": "Array of tokenIds to update balance of"
        }
      },
      "setApprovalForAll(address,bool)": {
        "details": "Will set _operator operator status to true or false",
        "params": {
          "_approved": "_operator's new operator status (true or false)",
          "_operator": "Address to changes operator status."
        }
      },
      "supportsInterface(bytes4)": {
        "details": "implement supportsInterface(bytes4) using a lookup table"
      },
      "tokenByIndex(uint256)": {
        "details": "Gets the token ID at a given index of all the tokens in this contract Reverts if the index is greater or equal to the total number of tokens",
        "params": {
          "_index": "uint256 representing the index to be accessed of the tokens list"
        },
        "return": "uint256 token ID at the given index of the tokens list"
      },
      "tokensOwned(address)": {
        "details": "Gets Iterate through the list of existing tokens and return the indexes       and balances of the tokens owner by the user",
        "params": {
          "_owner": "The adddress we are checking"
        },
        "return": "indexes The tokenIdsbalances The balances of each token"
      },
      "totalSupply()": {
        "details": "Gets the total amount of tokens stored by the contract",
        "return": "uint256 representing the total amount of tokens"
      }
    }
  },
  "userdoc": {
    "methods": {}
  }
}