{
  "contractName": "SimpleStore",
  "abi": [
    {
      "anonymous": false,
      "inputs": [
        {
          "indexed": true,
          "name": "_value",
          "type": "uint256"
        },
        {
          "indexed": false,
          "name": "_sender",
          "type": "address"
        }
      ],
      "name": "NewValueSet",
      "type": "event",
      "signature": "0x7e0b7a35f017ec94e71d7012fe8fa8011f1dab6090674f92de08f8092ab30dda"
    },
    {
      "anonymous": false,
      "inputs": [
        {
          "indexed": true,
          "name": "_value",
          "type": "uint256"
        },
        {
          "indexed": false,
          "name": "_sender",
          "type": "address"
        }
      ],
      "name": "NewValueSetAgain",
      "type": "event",
      "signature": "0xbd0b1e25f4b9c4b15621999967b6f720a9d31b208d1b70ec690fb4f46d445c82"
    },
    {
      "constant": false,
      "inputs": [
        {
          "name": "_value",
          "type": "uint256"
        }
      ],
      "name": "set",
      "outputs": [],
      "payable": false,
      "stateMutability": "nonpayable",
      "type": "function",
      "signature": "0x60fe47b1"
    },
    {
      "constant": false,
      "inputs": [
        {
          "name": "_value",
          "type": "uint256"
        }
      ],
      "name": "setAgain",
      "outputs": [],
      "payable": false,
      "stateMutability": "nonpayable",
      "type": "function",
      "signature": "0xcf718921"
    },
    {
      "constant": true,
      "inputs": [],
      "name": "get",
      "outputs": [
        {
          "name": "",
          "type": "uint256"
        },
        {
          "name": "",
          "type": "address"
        }
      ],
      "payable": false,
      "stateMutability": "view",
      "type": "function",
      "signature": "0x6d4ce63c"
    }
  ],
  "bytecode": "0x608060405234801561001057600080fd5b5061022f806100206000396000f300608060405260043610610057576000357c0100000000000000000000000000000000000000000000000000000000900463ffffffff16806360fe47b11461005c5780636d4ce63c14610089578063cf718921146100e7575b600080fd5b34801561006857600080fd5b5061008760048036038101908080359060200190929190505050610114565b005b34801561009557600080fd5b5061009e610184565b604051808381526020018273ffffffffffffffffffffffffffffffffffffffff1673ffffffffffffffffffffffffffffffffffffffff1681526020019250505060405180910390f35b3480156100f357600080fd5b5061011260048036038101908080359060200190929190505050610193565b005b806000819055506000547f7e0b7a35f017ec94e71d7012fe8fa8011f1dab6090674f92de08f8092ab30dda33604051808273ffffffffffffffffffffffffffffffffffffffff1673ffffffffffffffffffffffffffffffffffffffff16815260200191505060405180910390a250565b60008060005433915091509091565b806000819055506000547fbd0b1e25f4b9c4b15621999967b6f720a9d31b208d1b70ec690fb4f46d445c8233604051808273ffffffffffffffffffffffffffffffffffffffff1673ffffffffffffffffffffffffffffffffffffffff16815260200191505060405180910390a2505600a165627a7a723058205b4d90ecdc01bddf9c03acf7499096abad45628a0a18191ba16d4d0f1ec076db0029",
  "source": "pragma solidity ^0.4.24;\n\ncontract SimpleStore {\n    uint256 value;\n\n    event NewValueSet(uint256 indexed _value, address _sender);\n    event NewValueSetAgain(uint256 indexed _value, address _sender);\n\n    function set(uint256 _value) public {\n        value = _value;\n        emit NewValueSet(value, msg.sender);\n    }\n\n    function setAgain(uint256 _value) public {\n        value = _value;\n        emit NewValueSetAgain(value, msg.sender);\n    }\n\n    function get() public view returns (uint256, address) {\n        return (value, msg.sender);\n    }\n}\n",
  "sourcePath": "/Users/michaelcohen/Desktop/projects/nonce/dapp/contracts/SimpleStore.sol",
  "compiler": {
    "name": "solc",
    "version": "0.4.24+commit.e67f0147.Emscripten.clang"
  },
  "schemaVersion": "3.0.0",
  "updatedAt": "2018-12-29T00:23:14.300Z",
  "devdoc": {
    "methods": {}
  },
  "userdoc": {
    "methods": {}
  }
}